S01B00004763634170706C69636174696F6E315F365F302E7372656333
S113000012C02DC04FC02AC09CC028C06EC026C0DC
S113001025C024C023C022C021C020C01FC01EC0D0
S11300201DC01CC01BC011241FBECFE5D4E0DEBF21
S1130030CDBF10E0A0E6B0E0E4E7FBE002C005902D
S11300400D92AC36B107D9F720E0ACE6B0E001C0C0
S11300501D92A139B207E1F797D08AC5D1CF1F927B
S11300600F920FB60F9211242F933F934F935F93E8
S11300706F937F938F939F93AF93BF93EF93FF936C
S1130080A0D2FF91EF91BF91AF919F918F917F91FA
S11300906F915F914F913F912F910F900FBE0F90F1
S11300A01F9018951F920F920FB60F9211242F9341
S11300B03F934F935F936F937F938F939F93AF93EC
S11300C0BF93EF93FF93E8D3FF91EF91BF91AF916B
S11300D09F918F917F916F915F914F913F912F915C
S11300E00F900FBE0F901F9018951F920F920FB68E
S11300F00F9211242F933F934F935F936F937F93AA
S11301008F939F93AF93BF93EF93FF9346D28EB594
S11301108D7F8EBD8EB58E7F8EBD8BB7806C8BBF71
S1130120FF91EF91BF91AF919F918F917F916F91CB
S11301305F914F913F912F910F900FBE0F901F90A1
S113014018951F920F920FB60F9211242F933F937D
S11301504F935F936F937F938F939F93AF93BF93CB
S1130160EF93FF9383D3FF91EF91BF91AF919F9151
S11301708F917F916F915F914F913F912F910F904C
S11301800FBE0F901F90189587B3806C87BB8A9819
S1130190929A85B7816085BF8BB780648BBF8B983B
S11301A0939885B7886085BF85B7846085BF8BB712
S11301B080688BBF8C98949A84B3876084BB85B322
S11301C0876085BB81B3806E81BBB89A8EB5886029
S11301D08EBD89B7806189BF80E49CE99BBD8ABDDF
S11301E08EB582608EBD3BD332D078948499FECF95
S11301F0CBD0FCCF85B3876085BB089585B315BA92
S1130200089595B382E0892785BB089595B384E06A
S1130210892785BB0895E199FECF9FBB8EBBE09AE9
S11302208DB390E008950F931F93CF93DF938C01C8
S11302300196F1DFD82F80E0C82F0000C801EBDF62
S11302408C0F9D1FDF91CF911F910F91089581E035
S113025090E0E9DF9093730080937200019639F483
S1130260959A809187008B7F8093870006C0809148
S11302708700846080938700959883E090E0D3DFC3
S11302809093710080937000019639F4969A80914E
S11302908700877F8093870006C0809187008860ED
S11302A080938700969885E090E0BDDF90936F007F
S11302B080936E00019639F4979A809187008F7E1F
S11302C08093870006C080918700806180938700B7
S11302D0979887E090E0A7DF90936D0080936C007F
S11302E0019639F4C09A809187008F7D80938700AE
S11302F006C0C098809187008062809387008091B7
S1130300870082FF0CC08091870083FF08C0809122
S1130310870084FF04C08091870085FD11C080910F
S1130320870082FD1AC08091870083FD16C08091EA
S1130330870084FD12C08091870085FF07C008955F
S113034080918700806480938700E9CF8091870043
S11303508F7B8093870085B315BA0895E199FECF0A
S11303609FBB8EBB6DBBE29AE19A08951F93CF9316
S1130370DF93EC01172FF2DF612FCE010196EEDF40
S1130380DF91CF911F9108956FEF7FEF81E090E0AF
S1130390EDDF6FEF7FEF83E090E0E8DF6FEF7FEF5B
S11303A085E090E0E3DF6FEF7FEF87E090E0DEDF52
S11303B085B315BA4CDF089520917600309177000B
S11303C02115310589F4909377008093760062308B
S11303D0F1F118F46130C9F00895633009F45CC098
S11303E0643009F47EC0089590937500809374007E
S11303F0623069F118F4613061F00895633009F4F2
S11304004BC0643009F46DC00895009709F4C4C06A
S11304109C0160917400709175006115710509F477
S1130420BBC06217730709F080C081E090E09EDFD3
S1130430809187008460809387009598109275005E
S113044010927400109277001092760008956091D3
S11304507600709177006115710509F49DC0809153
S1130460740090917500009709F496C06817790795
S113047009F069C083E090E079DF96988091870065
S11304808860809387001092750010927400109217
S1130490770010927600089560917600709177004D
S11304A06115710509F478C080917400909175000C
S11304B0009709F471C06817790709F052C085E004
S11304C090E054DF97988091870080618093870043
S11304D010927500109274001092770010927600BA
S11304E0089560917600709177006115710509F4A3
S11304F053C08091740090917500009709F44CC02A
S113050068177907E1F587E090E030DFC0988091C3
S113051087008062809387001092750010927400A7
S1130520109277001092760008951092770010923E
S113053076001092750010927400809187008B7F72
S1130540809387000895109277001092760010929D
S113055075001092740080918700877F80938700D4
S11305600895109277001092760010927500109200
S11305707400809187008F7E809387000895109285
S1130580770010927600109275001092740080919A
S113059087008F7D80938700089510928600809154
S11305A087008D7F80938700809187008E7F809362
S11305B0870008958BB78F778BBF8EB582608EBD11
S11305C008958CB59DB590938500809384001DBCDF
S11305D01CBC8091870080FD28C08091870081FF2A
S11305E029C123C010928300109282008FE180936E
S11305F060001092850010928400DCDF80918600F8
S11306008F5F8093860011C0809186008F5F8093F6
S113061086000BC0809186008F5F8093860005C0A2
S1130620809187008160809387008091870080FF9C
S113063015C120917A0030917B002115310559F4C0
S113064080918400909185008C509E4F90937B0004
S113065080937A00089540918400509185008091A0
S11306606000813190F142175307C8F421E030E073
S113067090EF980F02C0220F331F9A95E2F720954E
S1130680309540918000509181002423352330938C
S1130690810020938000803108F043C01BC021E01A
S11306A030E090EF980F02C0220F331F9A95E2F7C3
S11306B04091800050918100242B352B3093810090
S11306C0209380008031D8F02CC0803150F542173F
S11306D05307A8F421E030E0082E02C0220F331F94
S11306E00A94E2F72095309540918200509183005E
S11306F024233523309383002093820012C021E009
S113070030E0082E02C0220F331F0A94E2F7409112
S1130710820050918300242B352B30938300209347
S11307208200109279001092780010927B0010924F
S11307307A00811179C0809180009091810090931A
S11307407D0080937C00809182009091830090933F
S11307507F0080937E002091870026FD2CC020918D
S1130760870022FD03C061E027DE25C020918700B9
S113077023FD03C062E020DE1EC02091870024FD1B
S113078003C063E019DE17C02091870025FD03C074
S113079064E012DE10C08091870082FF0CC080915B
S11307A0870083FF08C08091870084FF04C0809184
S11307B0870085FD4DC08091870086FF2CC081E0B5
S11307C090E031DD209182003091830082179307FD
S11307D009F410DD83E090E026DD20918200309161
S11307E083008217930709F409DD85E090E01BDD9F
S11307F020918200309183008217930709F401DD70
S113080087E090E010DD2091820030918300821710
S1130810930709F4FBDC8EB582608EBD8EB58160D2
S11308208EBD8BB78F7B8BBF80916000815080938E
S11308306000089580918600813009F4E5CE08F4C3
S1130840D1CE823009F4E6CE833009F4E9CEEDCE80
S113085080918700806480938700ADCF089585B52B
S1130860876085BD89B7806489BF08951092880028
S11308701092900010928F0010928E0010928D00B2
S113088010928C0010928B0010928A0010928900B2
S11308908BB780688BBF089584B590E090938C00EB
S11308A080938B0014BC80918B0090918C009C01F0
S11308B02D5231092530310528F420918800222356
S11308C009F44AC120918A00263038F0209188002A
S11308D021602093880010928A00209188002130A2
S11308E009F053C09C012751310923303105B8F474
S11308F040918D0067E070E0641B710921E030E0F5
S113090002C0220F331F6A95E2F7209530919000C0
S11309102323209390004F5F40938D001BC09C01C4
S11309202852310923303105A8F440918D0067E045
S113093070E0641B710921E030E002C0220F331F14
S11309406A95E2F730919000232B209390004F5F3B
S113095040938D0020918D002830B8F09091900044
S113096080916B0098130AC010928D0080918800CA
S113097082608093880010929000089510928D00F8
S113098010928800109290000895209188002330DE
S113099009F09EC09C012751310923303105E8F448
S11309A040918D006FE070E0641B710921E030E03C
S11309B002C0220F331F6A95E2F7209530956091AB
S11309C08E0070918F002623372330938F0020935D
S11309D08E004F5F40938D0020C09C012852310946
S11309E023303105D0F440918D006FE070E0641B3A
S11309F0710921E030E002C0220F331F6A95E2F74B
S1130A0060918E0070918F00262B372B30938F00CE
S1130A1020938E004F5F40938D0020918D002031F4
S1130A2008F456C080918E0090918F002091690047
S1130A3030916A008217930719F421E0209389000A
S1130A4020916700309168008217930719F422E01F
S1130A5020938900209165003091660082179307E6
S1130A6019F423E0209389002091630030916400FD
S1130A708217930759F424E02093890020916100A0
S1130A80309162008217930761F408C020916100DD
S1130A90309162008217930709F064C085E0809367
S1130AA089008091880084608093880010928D0072
S1130AB010928F0010928E00089510928D00109263
S1130AC08F0010928E001092880010928900089571
S1130AD020918800273009F04AC086549109039771
S1130AE0B8F580918900833091F028F4813041F089
S1130AF0823051F02DC0843079F0853091F028C0D7
S1130B0085B3876085BB24C085B315BA21C095B36E
S1130B1082E0892785BB1CC095B384E0892785BB07
S1130B2017C06FEF7FEF81E090E020DC6FEF7FEF85
S1130B3083E090E01BDC6FEF7FEF85E090E016DC54
S1130B406FEF7FEF87E090E011DC85B315BA7FDBB0
S1130B508BB78F778BBF089520918A002F5F2093E6
S1130B608A00B0CE8091890081119BCFA6CF0895D1
S1070B70F894FFCF23
S10F0B741F55BAD5AB6666E4274C326509
S9030000FC
